:020000040000FA
:04100000C0EF3FF00E
:107F80000001E6EF3FF00E0EC16E070EB46E940EC8
:107F9000C06E010EC26E1200056E0544E846FC0B71
:107FA0000109C26EC282C2B2FED7C450030B066E74
:107FB000C3CF07F0075006C003F0046A03C004F003
:107FC000036A0310016E0450026E12000F0EC16EA0
:107FD000070EB46E9694C3EC3FF0000ECCEC3FF06D
:107FE00001C008F002C009F009BE08D0F50E085C17
:107FF000010E0958D8A002D08D84EFD78D94EDD70B
:020000040020DA
:08000000FFFFFFFFFFFFFFFF00
:020000040030CA
:0E00000000021E1EFF8301FF0FC00FE00F4025
:00000001FF
