:020000040000FA
:06000000E6EF07F012001C
:020006001200E6
:0600080004EF08F01200F5
:02000E000000F0
:060018000CEF08F01200DD
:02001E000100DF
:0C0020000E000000FE04000002000000C2
:04002C009480949296
:100030000401A36BA769A869A969A66B010EAA6F41
:100040001200D9CFE6FFE1CFD9FFE6520401A35158
:100050001FE1040108BF1BD0400EE66EA50EE66E40
:10006000000EE66E09EC06F0E552E552E552040199
:10007000010EA36FDF6A400EDF5C09E2DF50EA6A1F
:10008000600FE96E000EEA22EF6ADF2AF4D796D1FC
:100090000001A551080A01E180D10F0A01E123D135
:1000A000010A01E118D1030A01E1B4D0010A6AE0B2
:1000B000070A5DE0010A01E081D10001020E606FD4
:1000C00000013A0E616F0001010E626F0001010E26
:1000D000636F0001646B100E656F666B676B0001E8
:1000E000686B700E696F6A6B6B6B0001030E6C6F4F
:1000F00000016D6B6E6B300E6F6F706B00010E0E3A
:10010000716F726B736B746B0001010E756F000180
:10011000766B776B200E786F796B0001080E7A6F23
:100120007B6B7C6B7D6B00017E690001020E7E6F34
:1001300000017F6B806BF00E816F826B0001836B1F
:10014000010E846F856B866B0001876904010CBF0B
:100150000DD0400EE66E600EE66E000EE66ED9EC37
:1001600005F0E552E552E5520401A36B27D10401E5
:10017000010EAA6F0001A65102E10401AA6B04015D
:10018000A36B1CD1400E0401A46FA56B0401000EEB
:10019000A45D020EA5591FE20400A4C400F0A5C48A
:1001A00001F0026A060E1F0B00C0F6FF01C0F7FF48
:1001B00002C0F8FF06E0D890F636F736F836E806C3
:1001C000FAE1940EA66EA3D963EC06F00401A42B09
:1001D000000EA523DBD7DF6ADF50A96EA868040EE6
:1001E000A66E63EC06F093D9DF50DF2A006E016A39
:1001F000026AFF0E005C000E0158000E0258ECE38C
:10020000F66AF76A200EF86E940EA66E80D9040185
:10021000A36BD4D0300E0001A85D07E10401AA5100
:1002200001E132D90401A36BC9D0F00E0001A85D31
:1002300004E14DD90401A36BC1D0E8680401A719FA
:1002400005E1E868A81902E1E868A91906E1A6C075
:10025000A7F4A7C0A8F4A8C0A9F4A70EE96E040EDD
:10026000EA6EEE500001A61908E1EE500001A71950
:1002700004E1EE500001A81900E12AE1DF6A000163
:10028000AA51DF5C25E23A0E0001D880AA55DF248E
:10029000EA6AAB0FE96E000EEA22EF50E66E040147
:1002A000A651EA6AAB0FE96E040EEA22E552E75066
:1002B000EF6E0401A62B0401A72B000EA823000E4D
:1002C000A923200E0401A65D01E17DD8DF2AD7D73E
:1002D0000401A36B73D077D80401A769A869A96941
:1002E0000401A36B6BD00001070E606FA6C061F024
:1002F000A7C062F0A8C063F0A9C064F0AAC065F00E
:10030000A6C0F6FFA7C0F7FFA8C0F8FFDF6A00018C
:10031000AA51DF5C31E2F00E0001A85D13E1DF506D
:100320000001A625A96EA66AA6803A0E0001D88013
:10033000AA55DF24EA6A660FE96E000EEA22A8CF0A
:10034000EFFF18D00900300EF85C08E1050EF65CEE
:1003500001E1F568080EF65C01E1F5683A0E00016E
:10036000D880AA55DF24EA6A660FE96E000EEA22F9
:10037000F5CFEFFFDF2ACBD704010CBF0DD0400E25
:10038000E66E600EE66E000EE66ED9EC05F0E55204
:10039000E552E5520401A36B11D06D926D6ADF6ADC
:1003A000FF0EDF5C09E2E868E85004E0E80600D0F0
:1003B00000D0FAD7DF2AF4D7FF0000D0E552E5528B
:1003C000E7CFD9FF12000001A16BA6C400F0016ABB
:1003D000026A00500401A75DF66E01500401A8599D
:1003E000F76E02500401A959F86E1F0EF6140001B1
:1003F000A26FE00EF6160001A06B200E0001A05DBA
:100400001FE20001A25115E10401A6510FE0000115
:10041000A151EA6AAB0FE96E040EEA22EF50F56EC5
:100420000D000001A12B0401A60702D0F5680D0004
:1004300004D0F5680D000001A2070001A02BDDD754
:100440000A00A40EA66E63D80001A06B0401A65199
:100450000001A05D18E20001A1510001A025EA6A97
:10046000AB0FE96E040EEA22EF50E66E0001A051D8
:10047000EA6AAB0FE96E040EEA22E552E750EF6E2E
:100480000001A02BE3D71200A6C0F6FFA7C0F7FF1C
:10049000A8C0F8FF0001A36B0001AA510001A35DF1
:1004A00015E23A0E0001D880AA550001A325EA6A98
:1004B000AB0FE96E000EEA22EF50F56E0C00C40E91
:1004C000A66E25D809000001A32BE6D71200000173
:1004D000A46B0001AA510001A45D18E20001A6511D
:1004E0000001A425A96E3A0E0001D880AA5500018A
:1004F000A425EA6AAB0FE96E000EEA22EF50A86E5F
:10050000040EA66E04D80001A42BE3D71200F29EBD
:10051000550EA76EAA0EA76EA682A6B2FED7A69407
:020520001200C7
:0E0522007AD9E6526C5032E16896040100511D
:100530003C0BE842E8420D0828E1180E021923E1BD
:10054000040E031920E1100E026F040E036FDF6A20
:10055000DF50006E016A080E005C000E015813E2C5
:10056000DF50EA6A180FE96E040EEA22EF50E66ED9
:10057000DF50EA6A100FE96E040EEA22E552E750F6
:10058000EF6EDF2AE5D70ED80AD03FD808D0040E88
:100590006C5C03E1689650D802D0000E01D0010EC9
:1005A000E5523FD139D9E652040104BF046B04017E
:1005B000FD6BF56BF66BFB6BFC6B1DEC04F0DF6AFF
:1005C000DF50006E016A010E005C000E01581AE255
:1005D0000401F65117E1F76ADF34FE0BF736F66EC9
:1005E000940EF6260E0EF7220900F5CF00F0080053
:1005F000F5CF01F004D001C0FAFF0050F96EFBDF27
:10060000DF2ADED7B4D8E5520CD1020E0401F55D25
:100610000EE181D80401180E026F040E036F080E5C
:10062000016F00BD02D0C80E05D0880E03D0D8D807
:10063000E4D88C0E006F1200040E0001E55D09E1A4
:1006400012C46EFF6E50000802E2050E01D0030EC8
:10065000E56F0401F50510E111D8020E0401FD5DFE
:1006600003E10401840E06D0040104BD02D0C80ECB
:1006700001D0880E046F1200F0EF03F0CDD8020E07
:10068000E1260401080EFB5D000EFC590DE2FBC4DF
:10069000DEFFFCC4DDFFFD5102E1010E03D0FD05CC
:1006A00006E1020EFD6F03D0080EDE6EDD6A040166
:1006B00004930491010EDB500413DFCF05F4000E08
:1006C000DB500401FB5F010EDB50FC5B180EF96F81
:1006D000040EFA6F0001E6A30CD097D815E0F7C41A
:1006E000F6FFF8C4F7FF0800F5507FD8F6E2DB0606
:1006F000F4D78BD809E0F7C4E9FFF8C4EAFFEF505C
:1007000074D8F7E2DB06F5D7020EE15C02E2E16A9B
:10071000E552E16E86D080D8020EE126030E040178
:100720000015E76E010EE7CFDBFF01C4DFFFDE50EF
:100730000401FB27DD50FC23180EF76F040EF86F41
:1007400064D80EE0F7C4E9FFF8C4EAFFEF50F9C43B
:10075000E9FFFAC4EAFFEF6E68D8F2E2DB06F0D7F1
:10076000020EE15C02E2E16AE552E16E5AD06D9858
:100770000401F65105E141D8840E006F04011DD03B
:10078000040110AF1CD00401FB510401165D0401EB
:10079000FC510401175904E216C4FBF417C4FCF41D
:1007A0006DDF0401010EF56F28D8800E006F040183
:1007B000180E066F040E076FC80E046F12000401B6
:1007C000020EF56F0401056BC80E046F0401080EDC
:1007D000016F180E026F040E036FC80E006F120037
:1007E0000401F56B0401046B1200F9C4E9FFFAC4BB
:1007F000EAFFEF6E040115EF04F00401080E016F2B
:10080000100E026F040E036F1200D9CFE9FFDACF8A
:10081000EAFFEE50ED101200D9CFE6FFE1CFD9FF8D
:100820001200E552E7CFD9FF1200F92B000EFA2390
:0A083000F72BF823DF06010E12007B
:06083A0004011051600BE7
:10084000E842E842E842E842E842000901E01200DA
:100850001151070A40E00B0A3EE0070A33E0010AA3
:1008600023E00B0A1FE0020A1DE0030A19E0080A50
:1008700010E0010A0CE00F0A08E0030A01E0120090
:1008800012D90001040EE56F12006CEF04F0A3EF23
:1008900004F009D90401E70EF76F000EF86F0CD0D1
:1008A000BEEF04F0F0EF04F002D90401F76FF86B2B
:1008B000E80EF727000EF8230001E6930401010E6D
:1008C000FB6F1200F4D8EA6AE80FE96E000EEA2224
:1008D00012C4EFFF12001200800E0401105D32E11D
:1008E0001351030A1FE0010A0AE0030A29E1DBD8D9
:1008F0000401D40EF76F0D0EF86F120E1ED0B2D891
:100900008A0EF6260E0EC0D8020E0401F76AF725ED
:10091000F66EF851F7220900F5CFFBF40A00F5CF87
:10092000FCF40ED09FD88E0EF6260E0EADD8F7C46E
:10093000F6FFF8C4F7FF0800F5500401FB6FFC6BED
:100940000001E6831200AFD80F0EE66E710EE66E60
:100950000F0EA2D8010EE66EE80EE66E000E9CD8D1
:1009600012C4E7F00401125104E10001050EE56F25
:1009700012000001060EE56FC4EF05F00401186BCC
:10098000196B040110511F0B020A0FE0030A0BE060
:10099000010A18E188D8040118810001E6A112D0EB
:1009A000040118830FD07FD80DD050D801E0010E7C
:1009B00062D8F9C4E9FFEA6EEF50040B03E00401CA
:1009C000010E186F0401F6050AE10401180EF76F15
:1009D000040EF86F0001E6930401020EFB6F120093
:1009E000040112050EE110511F0B00090AE15BD84A
:1009F000030E0401115D03E10001E68102D0000154
:100A0000E6910401125121E110511F0B02081DE172
:100A100014510F0B000919E019D801E0010E2BD871
:100A2000030E0401115D02E1840E03D014AF07D060
:100A3000400EF9C4E9FFFAC4EAFFEF6E1200880E17
:100A4000F9C4E9FFFAC4EAFFEF6E120030D80F0BC9
:100A5000080DF350016A000F006E040E01221451BC
:100A6000800B120020D804011251F66EF76AD8905C
:100A7000F636F7361200040DF35004010024F96F26
:100A8000000E0120FA6F1200F7220900F5CFF7F4EB
:100A90000A00F5CFF8F41200E66ED5EC06F0E55248
:100AA000E552E55212000401010EF66F1200FBDF61
:060AB000040114511200C4
:0A0AB600040110511F0B010801E0BC
:100AC0001200145101E01200060E115D24E11351D1
:100AD000230A1FE0010A0DE0030A1BE1DBD8000135
:100AE000E70505E10401F80EF76F0D0EF86F090E2A
:100AF0000DD0D0D80001E70505E104016D0EF76FB8
:100B00000E0EF86F0001E70504E11D0E0401FB6FF6
:100B1000FC6B0001E68304011051600BE842E842DF
:100B2000E842E842E842010801E0120011510B0AD4
:100B300025E0080A17E0090A11E0080A09E00B0A93
:100B400005E0080A01E01200C2EF05F0C3EF05F06E
:100B5000A1D80401E90EF76F000E09D09BD813C489
:100B6000E9F0120097D80401EA0EF76F000EF86F53
:100B70000001E6930401010EFB6F12008BD812C432
:100B8000EAF01200120012000001EB6B1E0E716EF3
:100B90000401400E096F200E0A6F040E0B6F880EC1
:100BA000086F0401600E0E6F040E0F6F400E0C6F85
:100BB0001200D9CFE6FFE1CFD9FFE652FC0EDB50A1
:100BC000400805E2400EF36EFC0EF3CFDBFFDF6A58
:100BD000FC0EDB50DF5C0FE2DF5050D8EF50E66ECA
:100BE000DF50EA6A600FE96E040EEA22E552E75030
:100BF000EF6EDF2AEDD7FC0EDBCF0DF4400E0401C3
:100C00000C170C7D880E0C13E552E552E7CFD9FF87
:100C10001200D9CFE6FFE1CFD9FF0001EB6B040151
:100C200008BF26D0FC0EDBCF00F00951D88000545D
:100C300003E2FC0E09C4DBFF0001EB6BFC0EDB5092
:100C4000EB5D0FE2EB51EA6A200FE96E040EEA2237
:100C5000EF50E66EEB5112D8E552E750EF6EEB2BFA
:100C6000EDD70401400E096F0817087D880E0813A0
:100C70000001EB51E552E7CFD9FF1200E76EFD0E00
:100C8000DBCFE9FFFE0EDBCFEAFFE750E926000EDF
:0C0C9000EA2212000401020EF66F1200AE
:040C9C006DA60CD85D
:100CA0000001E50508E16DBA06D0686A696A6980E5
:100CB0006988020EE56F12006D6A696A6D8600012F
:100CC000010EE56F12000001E55101E1120068B468
:100CD00025D86DB2120068B038D868B817D868BA8D
:100CE00024D8030E0001E55D01E212000001EC6B67
:100CF000040EEC5D0AE268A608D091EC02F000094F
:100D000001E168960001EC2BF3D712006984689822
:100D10006D82A19AA08A0300A09A12006D92699434
:100D200068A402D06894FCD7120070A00CD0800E8A
:100D30000401005D07E1840E0401045D03E1040188
:100D40008C0E006F7090689A12006A6A686A9F0E33
:100D50006B6E7B0E696E6E6A0F0EE66E710EE66E3E
:100D60000F0EE66E22D8E552E552E552160E706E71
:100D700068A605D0689600D000D00000F9D76D981D
:100D8000F0EC03F00401080E016F0401100E026F75
:100D9000040E036F04018C0E006F0001E691000148
:100DA000E76B0001030EE56F1200D9CFE6FFE1CF3C
:100DB000D9FFFD0EDBCFE9FFFE0EDBCFEAFFFC0E15
:100DC000DB5004E0EE6AFC0EDB06F9D7E552E7CF14
:040DD000D9FF120035
:0C0DD4001201000200000008D8043C00DE
:100DE00002000102000109022900010100C03209CC
:100DF0000400000203000000092111010001221D6E
:100E000000070581034000010705010340000104BC
:100E100003090434034D006900630072006F00632E
:100E200000680069007000200054006500630068DD
:100E3000006E006F006C006F0067007900200049B1
:100E4000006E0063002E0026034800490044002085
:100E500000550053004200200042006F006F0074F4
:100E6000006C006F0061006400650072000600FF06
:100E70000901A10119012940150026FF00750895F7
:100E8000408100190129409100C0E60DE60D0F0ECA
:060E9000130E470EB60A26
:0A0E96001E0EF66E000EF76E000E41
:100EA000F86E04010900F550F06F0900F550F16F7C
:100EB00003E1F06701D03DD00900F550EB6F090068
:100EC000F550EC6F0900F550ED6F09000900F55081
:100ED000E96E0900F550EA6E090009000900F550B5
:100EE000EE6F0900F550EF6F09000900F6CFF2F43C
:100EF000F7CFF3F4F8CFF4F4EBC4F6FFECC4F7FF4C
:100F0000EDC4F8FF0401EE5302E1EF5307E00900DE
:100F1000F550EE6EEE07F8E2EF07F9D7F2C4F6FFF0
:100F2000F3C4F7FFF4C4F8FF0401F007000EF15B0F
:040F3000BFD7120015
:0C0F34000F0EC16E82A004D0070EC16E2B
:100F400000EF08F00ED8040016D819D8060E0001DC
:100F5000E55D05E16D50020B02E121EC00F0F3D7F5
:100F60001200140E6F6E0001E56B0001E66B0001CC
:100F7000E76B16EF00F04EEC06F063EF06F00401AD
:100F8000FE51FF1104E1100EFE6F270EFF6FFE07EA
:100F9000000EFF5B060E0001E55D02E28B8212008F
:0C0FA0000401FE51FF1101E18B721200F0
:040FAC00000EF36ED2
:100FB00000EE00F0080E01D81200EA6002D0EE6ADE
:0C0FC000FCD7F350E9601200EE6AFCD789
:040FCC0013EE00F030
:100FD00023EE00F0F86A049C4BEC07F003EC00F001
:080FE0009AEC07F0FBD71200A8
:020000040030CA
:0100000020DF
:010001000EF0
:010002003FBE
:010003001EDE
:010005008179
:010006008178
:010008000FE8
:01000900C036
:01000A000FE6
:01000B00E014
:01000C000FE4
:01000D0040B2
:00000001FF
